:100000000C942A000C9447000C9447000C94470071
:100010000C9447000C9447000C9447000C94470044
:100020000C9447000C9447000C94CD120C9472125F
:100030000C9447000C9447000C9447000C94470024
:100040000C9447000C9447000C9447000C94470014
:100050000C94470011241FBECFE5D8E0DEBFCDBF12
:1000600011E0A0E6B0E0ECE9FDE502C005900D92DC
:10007000A43FB107D9F712E0A4EFB1E001C01D928F
:10008000A335B107E1F70E94E32D0C94CC2E0C941C
:100090000000EF92FF920F931F937B018C0120E0F1
:1000A00030E040E05FE40E94250488238CF0C80122
:1000B000B70120E030E040E05FE40E94C1010E940F
:1000C000E3049B01AC01205030404040504806C042
:1000D000C801B7010E94E3049B01AC01B901CA0148
:1000E0001F910F91FF90EF900895A0E0B0E0EBE733
:1000F000F0E00C94192EDC012B01FA019C91923056
:1001000008F439C1EB018881823008F433C194309E
:1001100069F4843009F02FC111969C91119789815F
:10012000981709F428C1A8EDB0E025C1843009F47E
:1001300021C18230A9F4923009F01DC19A01AD01AC
:1001400088E0EA010990AE01E90109929E0181501F
:10015000C1F7E201898111969C918923818308C1AD
:10016000923009F407C112962D903C901397EB0141
:100170008A819B811496AD90BD90CD90DC901797AD
:10018000EC80FD800E811F819101281B390BB90184
:1001900037FF04C066277727621B730B6032710537
:1001A0000CF061C0121613066CF537014801062EDB
:1001B00004C096948794779467940A94D2F721E0C8
:1001C00030E040E050E004C0220F331F441F551FB1
:1001D0006A95D2F721503040404050402E213F21B7
:1001E00040235123211531054105510521F021E01E
:1001F00030E040E050E079018A01E628F72808293C
:1002000019293CC0232BD1F1260E371E350146019A
:10021000062E04C096948794779467940A94D2F734
:1002200021E030E040E050E004C0220F331F441FC3
:10023000551F6A95D2F721503040404050402A2146
:100240003B214C215D21211531054105510521F04E
:1002500021E030E040E050E059016A01A628B728CB
:10026000C828D9280BC0821593052CF01C01AA249C
:10027000BB24650103C0EE24FF24870111969C91E5
:10028000D20111968C91981709F445C0992339F041
:10029000A80197012A193B094C095D0906C0A6016E
:1002A00095012E193F09400B510B57FD08C01182D3
:1002B0003382228224833583468357831DC081E0A5
:1002C00081833382228288279927DC01821B930B4A
:1002D000A40BB50B84839583A683B7830DC0220F2F
:1002E000331F441F551F24833583468357838281E0
:1002F000938101979383828324813581468157813D
:10030000DA01C9010197A109B1098F5F9F4FAF4F72
:10031000BF4328F30BC0918333822282EA0CFB1C7B
:100320000C1D1D1DE482F5820683178383E0808304
:10033000248135814681578157FF1AC0C901AA27F8
:1003400097FDA095BA2F81709070A070B0705695EF
:10035000479537952795822B932BA42BB52B848318
:100360009583A683B7838281938101969383828349
:10037000DF0101C0D201CD01CDB7DEB7E2E10C94BF
:10038000352EA0E2B0E0E7ECF1E00C94252E698375
:100390007A838B839C832D833E834F835887E9E048
:1003A000EE2EF12CEC0EFD1ECE010196B7010E943F
:1003B000D4068E010F5E1F4FCE010596B8010E9434
:1003C000D4068A8991E089278A8BC701B801AE01DA
:1003D000475E5F4F0E9475000E94FF05A096E6E011
:1003E0000C94412EA0E2B0E0E8EFF1E00C94252E51
:1003F00069837A838B839C832D833E834F835887C5
:10040000F9E0EF2EF12CEC0EFD1ECE010196B701A6
:100410000E94D4068E010F5E1F4FCE010596B801D3
:100420000E94D406C701B801AE01475E5F4F0E942B
:1004300075000E94FF05A096E6E00C94412EA0E214
:10044000B0E0E5E2F2E00C94192E69837A838B83A5
:100450009C832D833E834F835887CE010196BE0136
:10046000675F7F4F0E94D406CE010596BE016F5E86
:100470007F4F0E94D4069985923088F08989823016
:10048000C8F0943019F4823051F404C0843029F457
:10049000923081F488ED90E0C6C0923049F420E0BB
:1004A0009A858A89981321E02A87CE010996BBC0D4
:1004B000823049F420E09A858A89981321E02A8BBA
:1004C000CE014196B0C02D843E844F8458886D88FB
:1004D0007E888F88988CEE24FF248701AA24BB2471
:1004E000650140E050E060E070E0E0E0F0E0C10174
:1004F00081709070892BE9F0E60CF71C081D191D1E
:100500009A01AB012A0D3B1D4C1D5D1D80E090E062
:10051000A0E0B0E0E614F7040805190520F481E036
:1005200090E0A0E0B0E0BA01A901480F591F6A1F8E
:100530007B1FAA0CBB1CCC1CDD1C97FE08C081E0F5
:1005400090E0A0E0B0E0A82AB92ACA2ADB2A3196B6
:10055000E032F10549F0660C771C881C991C569412
:10056000479437942794C3CFFA85EA892B893C892D
:100570008B859C85280F391F2E5F3F4F17C0CA01FE
:1005800081709070892B61F016950795F794E79428
:1005900080E090E0A0E0B0E8E82AF92A0A2B1B2BC3
:1005A00076956795579547952F5F3F4F77FDE7CF36
:1005B0000CC0440F551F661F771F17FD4160EE0CDE
:1005C000FF1C001F111F21503040403090E05907A0
:1005D00090E0690790E4790760F32B8F3C8FDB0193
:1005E000CA018F779070A070B07080349105A1051A
:1005F000B10561F447FD0AC0E114F10401051105DC
:1006000029F0405C5F4F6F4F7F4F40781A8EFE1786
:1006100011F081E08A8F4D8F5E8F6F8F78A383E01A
:10062000898FCE0149960E94FF05A096E2E10C94C5
:10063000352EA8E1B0E0EFE1F3E00C94212E6983C0
:100640007A838B839C832D833E834F835887B9E0C5
:10065000EB2EF12CEC0EFD1ECE010196B7010E948F
:10066000D4068E010F5E1F4FCE010596B8010E9481
:10067000D4062985223008F47EC03989323010F43E
:10068000B8017CC08A859A8989278A87243011F02D
:10069000223031F4231709F06EC068ED70E06EC0AF
:1006A000343039F41D861E861F86188A1C861B86E8
:1006B00004C0323021F484E08987B7015FC02B8504
:1006C0003C858B899C89281B390B3C872B87ED84C3
:1006D000FE840F851889AD88BE88CF88D88CEA142F
:1006E000FB040C051D0540F4EE0CFF1C001F111F40
:1006F000215030403C872B8720E030E040E050E044
:1007000080E090E0A0E0B0E460E070E0EA14FB0478
:100710000C051D0540F0282B392B4A2B5B2BEA18C2
:10072000FB080C091D09B695A79597958795EE0CC2
:10073000FF1C001F111F6F5F7F4F6F31710531F775
:10074000DA01C9018F779070A070B0708034910584
:10075000A105B10561F427FD0AC0E114F10401050A
:10076000110529F0205C3F4F4F4F5F4F20782D87B8
:100770003E874F87588BBE01675F7F4FCB010E943A
:10078000FF056896EAE00C943D2EA8E1B0E0EBECA2
:10079000F3E00C94252E69837A838B839C832D83CD
:1007A0003E834F83588789E0E82EF12CEC0EFD1E26
:1007B000CE010196B7010E94D4068E010F5E1F4F35
:1007C000CE010596B8010E94D4068985823040F09A
:1007D0008989823028F0C701B8010E944C0701C006
:1007E00081E06896E6E00C94412EA8E1B0E0EBEFE2
:1007F000F3E00C94252E69837A838B839C832D836D
:100800003E834F83588789E0E82EF12CEC0EFD1EC5
:10081000CE010196B7010E94D4068E010F5E1F4FD4
:10082000CE010596B8010E94D4068985823040F039
:100830008989823028F0C701B8010E944C0701C0A5
:100840008FEF6896E6E00C94412EA8E1B0E0EBE271
:10085000F4E00C94252E69837A838B839C832D830B
:100860003E834F83588789E0E82EF12CEC0EFD1E65
:10087000CE010196B7010E94D4068E010F5E1F4F74
:10088000CE010596B8010E94D4068985823040F0D9
:100890008989823028F0C701B8010E944C0701C045
:1008A0008FEF6896E6E00C94412EA8E1B0E0EBE50E
:1008B000F4E00C94252E69837A838B839C832D83AB
:1008C0003E834F83588789E0E82EF12CEC0EFD1E05
:1008D000CE010196B7010E94D4068E010F5E1F4F14
:1008E000CE010596B8010E94D4068985823040F079
:1008F0008989823028F0C701B8010E944C0701C0E5
:1009000081E06896E6E00C94412EA8E0B0E0EBE8C8
:10091000F4E00C94222E9B01AC0183E08983DA0180
:10092000C9018827B7FD83959927AA27BB27B82E29
:10093000211531054105510519F482E089833AC03A
:100940008823A9F0203080E0380780E0480780E85D
:10095000580729F460E070E080E09FEC30C0EE249E
:10096000FF248701E21AF30A040B150B02C0790178
:100970008A018EE1C82ED12CDC82CB82ED82FE82F0
:100980000F831887C801B7010E94B0050197181698
:10099000190684F4082E04C0EE0CFF1C001F111F62
:1009A0000A94D2F7ED82FE820F831887C81AD90AFB
:1009B000DC82CB82BA82CE0101960E94FF05289686
:1009C000E9E00C943E2EACE0B0E0E9EEF4E00C94EB
:1009D000292E69837A838B839C83CE010196BE0185
:1009E0006B5F7F4F0E94D4068D81823061F182302F
:1009F00050F1843021F48E81882351F12EC02F8153
:100A0000388537FD20C06E812F3131051CF06623FB
:100A1000F9F023C08EE190E0821B930B29853A8583
:100A20004B855C8504C056954795379527958A95E3
:100A3000D2F76623B1F050954095309521953F4F00
:100A40004F4F5F4F0EC020E030E040E050E009C063
:100A50002FEF3FEF4FEF5FE704C020E030E040E0D2
:100A600050E8B901CA012C96E2E00C94452EA8E0AA
:100A7000B0E0EDE3F5E00C94212E7B018C016115D3
:100A800071058105910519F482E0898360C083E0D6
:100A900089838EE1C82ED12CDC82CB82ED82FE824E
:100AA0000F831887C801B7010E94B005FC01319778
:100AB000F7FF3BC0222733272E1B3F0B570168014E
:100AC000022E04C0D694C794B794A7940A94D2F780
:100AD00040E050E060E070E081E090E0A0E0B0E055
:100AE00004C0880F991FAA1FBB1F2A95D2F7019730
:100AF000A109B1098E219F21A023B1230097A1054F
:100B0000B10521F041E050E060E070E04A295B2946
:100B10006C297D294D835E836F8378878EE190E019
:100B20008E1B9F0B9C838B8312C0309781F00E2EFF
:100B300004C0EE0CFF1C001F111F0A94D2F7ED82B7
:100B4000FE820F831887CE1ADF0ADC82CB821A82DC
:100B5000CE0101960E94FF052896EAE00C943D2EF6
:100B6000EF92FF920F931F937B018C0180E0E816B8
:100B700080E0F80681E0080780E0180788F48FEF2E
:100B8000E816F1040105110531F028F088E090E045
:100B9000A0E0B0E017C080E090E0A0E0B0E012C0BC
:100BA00080E0E81680E0F80680E0080781E018079A
:100BB00028F088E190E0A0E0B0E004C080E190E09F
:100BC000A0E0B0E020E230E040E050E0281B390B2C
:100BD0004A0B5B0B04C016950795F794E7948A952A
:100BE000D2F7F701E052FF4F8081281B31094109FC
:100BF0005109C9011F910F91FF90EF900895DF9265
:100C0000EF92FF920F931F93FC01E480F580068121
:100C10001781D1808081823048F480E090E0A0E1AB
:100C2000B0E0E82AF92A0A2B1B2BA5C0843009F46E
:100C30009FC0823021F4EE24FF24870105C0E11417
:100C4000F1040105110519F4E0E0F0E096C06281BD
:100C500073819FEF623879070CF05BC022E83FEFA9
:100C6000261B370B2A3131052CF020E030E040E024
:100C700050E02AC0B801A701022E04C076956795FE
:100C8000579547950A94D2F781E090E0A0E0B0E054
:100C900004C0880F991FAA1FBB1F2A95D2F701977E
:100CA000A109B1098E219F21A023B1230097A1059D
:100CB000B10521F081E090E0A0E0B0E09A01AB0145
:100CC000282B392B4A2B5B2BDA01C9018F779070C7
:100CD000A070B07080349105A105B10539F427FFEB
:100CE00009C0205C3F4F4F4F5F4F04C0215C3F4F16
:100CF0004F4F5F4FE0E0F0E02030A0E03A07A0E087
:100D00004A07A0E45A0710F0E1E0F0E079018A0117
:100D100027C06038710564F5FB01E158FF4FD80129
:100D2000C7018F779070A070B07080349105A105D5
:100D3000B10539F4E7FE0DC080E490E0A0E0B0E03A
:100D400004C08FE390E0A0E0B0E0E80EF91E0A1FB7
:100D50001B1F17FF05C016950795F794E79431966A
:100D600087E016950795F794E7948A95D1F705C023
:100D7000EE24FF248701EFEFF0E06E2F67956627E2
:100D80006795902F9F77D794DD24D7948E2F8695E3
:100D9000492F462B582F5D29B701CA011F910F918A
:100DA000FF90EF90DF900895FC01DB0140815181BD
:100DB0002281622F6F7770E0221F2227221F9381EA
:100DC000892F880F822B282F30E0991F9927991F90
:100DD00011969C93119721153105A9F541155105DF
:100DE0006105710511F482E037C082E89FEF139628
:100DF0009C938E9312979A01AB0167E0220F331FE9
:100E0000441F551F6A95D1F783E08C930DC0220FC4
:100E1000331F441F551F12968D919C911397019774
:100E200013969C938E931297203080E0380780E0D1
:100E3000480780E4580758F314962D933D934D933B
:100E40005C93179708952F3F310579F441155105AB
:100E50006105710519F484E08C93089564FF03C063
:100E600081E08C9312C01C9210C02F573040139613
:100E70003C932E93129783E08C9387E0440F551F89
:100E8000661F771F8A95D1F7706414964D935D9312
:100E90006D937C93179708951F93DC01FB019C9140
:100EA000923008F447C08081823008F443C0943007
:100EB00051F411961C91843099F58181682F70E06E
:100EC000611B71093FC0843021F0923031F48230CF
:100ED000B9F18181882389F12DC011961C91119758
:100EE0008230F1F081811817D9F412962D913C913E
:100EF0001397828193818217930794F028173907FB
:100F0000BCF014968D919D910D90BC91A02D2481E3
:100F1000358146815781281739074A075B0718F43E
:100F2000112341F00AC082179307A407B50740F4C4
:100F3000112319F061E070E005C06FEF7FEF02C090
:100F400060E070E0CB011F9108950F931F93DF9332
:100F5000CF93CDB7DEB7CF55D0400FB6F894DEBFF4
:100F60000FBECDBFFE01E25AFF4F91838083FE0189
:100F7000E35AFF4F1082FE01E25AFF4F80819181B8
:100F800088966AE570E00E94C826FE01EF5AFF4F7E
:100F900080E090E0A8E4B2E480839183A283B383ED
:100FA0008E01035B1F4FFE01EF5AFF4F608171817D
:100FB0008281938120E030E04AE753E40E941F02DF
:100FC000DC01CB01F80180839183A283B383FE010E
:100FD000E35BFF4F608171818281938120E030E08B
:100FE00040E85FE30E945504882344F4FE01E55B7A
:100FF000FF4F81E090E09183808364C0FE01E35B5A
:10100000FF4F608171818281938120E03FEF4FE744
:1010100057E40E94F50318160CF043C0FE01EF5A86
:10102000FF4F608171818281938120E030E040E256
:1010300051E40E941F02DC01CB018E01055B1F4FB2
:10104000BC01CD010E944900DC01CB01F801918374
:1010500080831FC0FE01E75BFF4F89E190E0918331
:101060008083FE01E75BFF4F808191810197F1F75B
:10107000FE01E75BFF4F91838083DE01A55BBF4FDD
:10108000FE01E55BFF4F80819181019711969C9352
:101090008E93FE01E55BFF4F808191810097D1F631
:1010A00027C08E01055B1F4FFE01E35BFF4F608190
:1010B0007181828193810E944900DC01CB01F8019A
:1010C00091838083DE01A95BBF4FFE01E55BFF4F8B
:1010D000808191818D939C93FE01E95BFF4F80811C
:1010E00091810197F1F7FE01E95BFF4F91838083C6
:1010F000FE01E25AFF4F808191818F5A9F4F6FE529
:1011000070E00E94C826FE01ED5BFF4F80E090E09A
:10111000A8E4B2E480839183A283B3838E01015C4F
:101120001F4FFE01ED5BFF4F6081718182819381D2
:1011300020E030E04AE753E40E941F02DC01CB01CB
:10114000F80180839183A283B383FE01FF966081BF
:1011500071818281938120E030E040E85FE30E946A
:10116000550488232CF481E090E09EAF8DAF46C0FB
:10117000FE01FF96608171818281938120E03FEFC3
:101180004FE757E40E94F503181664F5FE01ED5B86
:10119000FF4F608171818281938120E030E040E2E5
:1011A00051E40E941F02DC01CB01BC01CD010E9471
:1011B0004900DC01CB019EAF8DAF0FC089E190E00B
:1011C0009CAF8BAF8BAD9CAD0197F1F79CAF8BAF14
:1011D0008DAD9EAD01979EAF8DAF8DAD9EAD00974D
:1011E00069F716C0FE01FF9660817181828193814B
:1011F0000E944900DC01CB019EAF8DAF8DAD9EAD4D
:101200009AAF89AF89AD9AAD0197F1F79AAF89AFDF
:10121000DE01A45ABF4FFE01E25AFF4F0190F08158
:10122000E02D80A58C93FE01E55AFF4F108293C0FC
:10123000FE01E25AFF4F20813181FE01E55AFF4F46
:101240008081882F90E0A901480F591FFE01E55ABF
:10125000FF4F8081282F30E0CA01B9010E94C826C3
:1012600080E090E0A8E4B2E48DAB9EABAFABB8AF4A
:101270006DA97EA98FA998AD20E030E04AE753E43C
:101280000E941F02DC01CB0189AB9AABABABBCABBC
:1012900069A97AA98BA99CA920E030E040E85FE326
:1012A0000E94550488232CF481E090E098AB8FA72E
:1012B0003FC069A97AA98BA99CA920E03FEF4FE71D
:1012C00057E40E94F50318164CF56DA97EA98FA965
:1012D00098AD20E030E040E251E40E941F02DC01C2
:1012E000CB01BC01CD010E944900DC01CB0198ABD0
:1012F0008FA70FC089E190E09EA78DA78DA59EA521
:101300000197F1F79EA78DA78FA598A9019798AB94
:101310008FA78FA598A9009769F714C069A97AA922
:101320008BA99CA90E944900DC01CB0198AB8FA737
:101330008FA598A99CA78BA78BA59CA50197F1F7D2
:101340009CA78BA7DE01A55ABF4FFE01E55AFF4FB0
:1013500080818F5F8C93FE01E55AFF4FDE01A45A16
:10136000BF4F90818C91981708F462CFFE01E25A2A
:10137000FF4F0190F081E02D80A5FE01E45AFF4F60
:101380008C5E8083FE01E65AFF4F84E18083A3C018
:10139000FE01E75AFF4F1082FE01E25AFF4F8081A3
:1013A00091819C012C5E3F4FFE01E75AFF4F8081E7
:1013B000882F90E0A901480F591FFE01E65AFF4F00
:1013C0008081282F30E0CA01B9010E94C826DE01C1
:1013D000A75ABF4FFE01E75AFF4F80818F5F8C9362
:1013E00080E090E0A8E4B2E48FA398A7A9A7BAA7E9
:1013F0006FA178A589A59AA520E030E04AE753E4DB
:101400000E941F02DC01CB018BA39CA3ADA3BEA352
:101410006BA17CA18DA19EA120E030E040E85FE3BC
:101420000E94550488232CF481E090E09AA389A3BC
:101430003FC06BA17CA18DA19EA120E03FEF4FE7B3
:1014400057E40E94F50318164CF56FA178A589A5FD
:101450009AA520E030E040E251E40E941F02DC0146
:10146000CB01BC01CD010E944900DC01CB019AA354
:1014700089A30FC089E190E098A38F8F8F8D98A1E9
:101480000197F1F798A38F8F89A19AA101979AA349
:1014900089A389A19AA1009769F714C06BA17CA1C7
:1014A0008DA19EA10E944900DC01CB019AA389A3D2
:1014B00089A19AA19E8F8D8F8D8D9E8D0197F1F7B9
:1014C0009E8F8D8FDE01A65ABF4FFE01E65AFF4F59
:1014D00080818F5F8C93FE01E65AFF4FDE01A45A94
:1014E000BF4F90818C91981708F452CFFE01E25AB9
:1014F000FF4F80819181FC01EF5AFF4F8081FE01F7
:10150000E45AFF4F885D8083FE01E85AFF4F88E26E
:101510008083A3C0FE01E95AFF4F1082FE01E25A08
:10152000FF4F808191819C01275D3F4FFE01E95A69
:10153000FF4F8081882F90E0A901480F591FFE01BD
:10154000E85AFF4F8081282F30E0CA01B9010E947C
:10155000C826DE01A95ABF4FFE01E95AFF4F80811C
:101560008F5F8C9380E090E0A8E4B2E4898F9A8F3B
:10157000AB8FBC8F698D7A8D8B8D9C8D20E030E098
:101580004AE753E40E941F02DC01CB018D8B9E8B46
:10159000AF8BB88F6D897E898F89988D20E030E080
:1015A00040E85FE30E94550488232CF481E090E03A
:1015B0009C8B8B8B3FC06D897E898F89988D20E0B5
:1015C0003FEF4FE757E40E94F50318164CF5698D7D
:1015D0007A8D8B8D9C8D20E030E040E251E40E94BA
:1015E0001F02DC01CB01BC01CD010E944900DC01DE
:1015F000CB019C8B8B8B0FC089E190E09A8B898B00
:1016000089899A890197F1F79A8B898B8B899C89B3
:1016100001979C8B8B8B8B899C89009769F714C0F1
:101620006D897E898F89988D0E944900DC01CB01EC
:101630009C8B8B8B8B899C89988B8F878F859889C6
:101640000197F1F7988B8F87DE01A85ABF4FFE01F3
:10165000E85AFF4F80818F5F8C93FE01E85AFF4F5D
:10166000DE01A45ABF4F90818C91981708F452CF95
:10167000FE01E25AFF4F80819181FC01EF5AFF4F3A
:101680008081FE01E45AFF4F845C8083FE01EA5AA8
:10169000FF4F8CE38083A3C0FE01EB5AFF4F108203
:1016A000FE01E25AFF4F808191819C01235C3F4FF4
:1016B000FE01EB5AFF4F8081882F90E0A901480F6F
:1016C000591FFE01EA5AFF4F8081282F30E0CA01DE
:1016D000B9010E94C826DE01AB5ABF4FFE01EB5A8A
:1016E000FF4F80818F5F8C9380E090E0A8E4B2E4AC
:1016F0008B879C87AD87BE876B857C858D859E8516
:1017000020E030E04AE753E40E941F02DC01CB01F5
:101710008F839887A987BA876F81788589859A850D
:1017200020E030E040E85FE30E94550488232CF479
:1017300081E090E09E838D833FC06F8178858985AD
:101740009A8520E03FEF4FE757E40E94F503181613
:101750004CF56B857C858D859E8520E030E040E2F0
:1017600051E40E941F02DC01CB01BC01CD010E94AB
:101770004900DC01CB019E838D830FC089E190E09D
:101780009C838B838B819C810197F1F79C838B8356
:101790008D819E8101979E838D838D819E8100978F
:1017A00069F714C06F81788589859A850E94490000
:1017B000DC01CB019E838D838D819E819A838983F9
:1017C00089819A810197F1F79A838983DE01AA5A68
:1017D000BF4FFE01EA5AFF4F80818F5F8C93FE015D
:1017E000EA5AFF4FDE01A45ABF4F90818C9198179F
:1017F00008F452CFFE01E35AFF4F81E08083FE01DF
:10180000E35AFF4F8081C15ADF4F0FB6F894DEBF15
:101810000FBECDBFCF91DF911F910F910895DF9340
:10182000CF93CDB7DEB7AF970FB6F894DEBF0FBE3C
:10183000CDBF9DA78CA77FA76EA71BA6ECA5FDA576
:1018400080A5843108F09EC1ECA5FDA580A5282FB8
:1018500030E0EEA5FFA540818CA59DA5FC01E20F1F
:10186000F31F4083ECA5FDA580A5282F30E0EEA551
:10187000FFA541818CA59DA5820F931FFC01749645
:101880004083EEA5FFA59081ECA5FDA580A5282F9E
:1018900030E0892FB9010E949F2680E090E0A8E403
:1018A000B2E48FA398A7A9A7BAA76FA178A589A525
:1018B0009AA520E030E04AE753E40E941F02DC01D1
:1018C000CB018BA39CA3ADA3BEA36BA17CA18DA1D7
:1018D0009EA120E030E040E85FE30E9455048823A9
:1018E0002CF481E090E09AA389A33FC06BA17CA176
:1018F0008DA19EA120E03FEF4FE757E40E94F50342
:1019000018164CF56FA178A589A59AA520E030E0BE
:1019100040E251E40E941F02DC01CB01BC01CD0179
:101920000E944900DC01CB019AA389A30FC089E181
:1019300090E098A38F8F8F8D98A10197F1F798A3CE
:101940008F8F89A19AA101979AA389A389A19AA1AE
:10195000009769F714C06BA17CA18DA19EA10E9484
:101960004900DC01CB019AA389A389A19AA19E8F8A
:101970008D8F8D8D9E8D0197F1F79E8F8D8FEEA5AA
:10198000FFA54181ECA5FDA580A5882F90E0449698
:101990009C01842FB9010E949F2680E090E0A8E47A
:1019A000B2E4898F9A8FAB8FBC8F698D7A8D8B8DC6
:1019B0009C8D20E030E04AE753E40E941F02DC01E6
:1019C000CB018D8B9E8BAF8BB88F6D897E898F8974
:1019D000988D20E030E040E85FE30E9455048823C2
:1019E0002CF481E090E09C8B8B8B3FC06D897E89CD
:1019F0008F89988D20E03FEF4FE757E40E94F50371
:101A000018164CF5698D7A8D8B8D9C8D20E030E019
:101A100040E251E40E941F02DC01CB01BC01CD0178
:101A20000E944900DC01CB019C8B8B8B0FC089E1AC
:101A300090E09A8B898B89899A890197F1F79A8B23
:101A4000898B8B899C8901979C8B8B8B8B899C893B
:101A5000009769F714C06D897E898F89988D0E94DF
:101A60004900DC01CB019C8B8B8B8B899C89988BEB
:101A70008F878F8598890197F1F7988B8F87ECA5D1
:101A8000FDA580A58F5FECA5FDA580A7ECA5FDA514
:101A900080A56AE570E00E949F2680E090E0A8E4BF
:101AA000B2E48B879C87AD87BE876B857C858D85EF
:101AB0009E8520E030E04AE753E40E941F02DC01EB
:101AC000CB018F839887A987BA876F8178858985AD
:101AD0009A8520E030E040E85FE30E9455048823C7
:101AE0002CF481E090E09E838D833FC06F817885E8
:101AF00089859A8520E03FEF4FE757E40E94F50380
:101B000018164CF56B857C858D859E8520E030E030
:101B100040E251E40E941F02DC01CB01BC01CD0177
:101B20000E944900DC01CB019E838D830FC089E1B7
:101B300090E09C838B838B819C810197F1F79C8340
:101B40008B838D819E8101979E838D838D819E8164
:101B5000009769F714C06F81788589859A850E94FE
:101B60004900DC01CB019E838D838D819E819A8308
:101B7000898389819A810197F1F79A83898381E02A
:101B80008BA701C01BA68BA5AF960FB6F894DEBF3E
:101B90000FBECDBFCF91DF910895DF93CF93CDB727
:101BA000DEB7AF970FB6F894DEBF0FBECDBF9DA7CF
:101BB0008CA77FA76EA71BA6ECA5FDA580A58431E9
:101BC00008F0B7C18CA59DA5FC01EF5AFF4F80819D
:101BD000282F30E0EEA5FFA540818CA59DA5820FA2
:101BE000931FFC01B99640838CA59DA5FC01EF5A7B
:101BF000FF4F8081282F30E0EEA5FFA541818CA505
:101C00009DA5820F931FFC01FD964083EEA5FFA5C5
:101C100040818CA59DA5FC01EF5AFF4F8081882F44
:101C200090E088969C01842FB9010E949F2680E055
:101C300090E0A8E4B2E48FA398A7A9A7BAA76FA1E0
:101C400078A589A59AA520E030E04AE753E40E94F0
:101C50001F02DC01CB018BA39CA3ADA3BEA36BA190
:101C60007CA18DA19EA120E030E040E85FE30E94CE
:101C7000550488232CF481E090E09AA389A33FC007
:101C80006BA17CA18DA19EA120E03FEF4FE757E41F
:101C90000E94F50318164CF56FA178A589A59AA5A1
:101CA00020E030E040E251E40E941F02DC01CB0161
:101CB000BC01CD010E944900DC01CB019AA389A39C
:101CC0000FC089E190E098A38F8F8F8D98A1019725
:101CD000F1F798A38F8F89A19AA101979AA389A35D
:101CE00089A19AA1009769F714C06BA17CA18DA16D
:101CF0009EA10E944900DC01CB019AA389A389A17E
:101D00009AA19E8F8D8F8D8D9E8D0197F1F79E8F5D
:101D10008D8FEEA5FFA541818CA59DA5FC01EF5AF5
:101D2000FF4F8081882F90E0CC969C01842FB901D1
:101D30000E949F2680E090E0A8E4B2E4898F9A8F09
:101D4000AB8FBC8F698D7A8D8B8D9C8D20E030E0C0
:101D50004AE753E40E941F02DC01CB018D8B9E8B6E
:101D6000AF8BB88F6D897E898F89988D20E030E0A8
:101D700040E85FE30E94550488232CF481E090E062
:101D80009C8B8B8B3FC06D897E898F89988D20E0DD
:101D90003FEF4FE757E40E94F50318164CF5698DA5
:101DA0007A8D8B8D9C8D20E030E040E251E40E94E2
:101DB0001F02DC01CB01BC01CD010E944900DC0106
:101DC000CB019C8B8B8B0FC089E190E09A8B898B28
:101DD00089899A890197F1F79A8B898B8B899C89DC
:101DE00001979C8B8B8B8B899C89009769F714C01A
:101DF0006D897E898F89988D0E944900DC01CB0115
:101E00009C8B8B8B8B899C89988B8F878F859889EE
:101E10000197F1F7988B8F878CA59DA5FC01EF5A50
:101E2000FF4F8081282F2F5F8CA59DA5FC01EF5AC5
:101E3000FF4F20838CA59DA5FC01EF5AFF4F8081A9
:101E40006FE570E00E949F2680E090E0A8E4B2E495
:101E50008B879C87AD87BE876B857C858D859E85AE
:101E600020E030E04AE753E40E941F02DC01CB018E
:101E70008F839887A987BA876F81788589859A85A6
:101E800020E030E040E85FE30E94550488232CF412
:101E900081E090E09E838D833FC06F817885898546
:101EA0009A8520E03FEF4FE757E40E94F5031816AC
:101EB0004CF56B857C858D859E8520E030E040E289
:101EC00051E40E941F02DC01CB01BC01CD010E9444
:101ED0004900DC01CB019E838D830FC089E190E036
:101EE0009C838B838B819C810197F1F79C838B83EF
:101EF0008D819E8101979E838D838D819E81009728
:101F000069F714C06F81788589859A850E94490098
:101F1000DC01CB019E838D838D819E819A83898391
:101F200089819A810197F1F79A83898381E08BA750
:101F300001C01BA68BA5AF960FB6F894DEBF0FBEEF
:101F4000CDBFCF91DF910895DF93CF9300D000D024
:101F50000F92CDB7DEB79B838A837D836C83198212
:101F600089810F900F900F900F900F90CF91DF917C
:101F70000895DF93CF9300D000D00F92CDB7DEB796
:101F80009B838A837D836C83198289810F900F9054
:101F90000F900F900F90CF91DF910895DF93CF9323
:101FA000CDB7DEB7A3E5B0E0E3E5F0E08081826085
:101FB0008C9381E0CF91DF910895DF93CF9300D090
:101FC000CDB7DEB78983E2E5F0E0898180830F90A9
:101FD0000F90CF91DF910895DF93CF9300D0CDB7CD
:101FE000DEB78983ECE5F0E0898180830F900F9064
:101FF000CF91DF910895DF93CF93CDB7DEB72D97C3
:102000000FB6F894DEBF0FBECDBF9C878B878FE6DF
:1020100092E1A3E0BFE38F839887A987BA878B8576
:102020009C85AA2797FDA095BA2FBC01CD010E94DF
:102030008504DC01CB01BC01CD012F8138854985A8
:102040005A850E941903DC01CB018B839C83AD83ED
:10205000BE836B817C818D819E810E94E304DC01C3
:10206000CB018093F4016B817C818D819E810E94E4
:10207000E304DC01CB01AA2797FDA095BA2FBC0190
:10208000CD010E9485049B01AC016B817C818D8117
:102090009E810E94C101DC01CB01BC01CD0120E089
:1020A00030E040E050E00E94C503882309F456C0A8
:1020B0006B817C818D819E810E94E304DC01CB01D8
:1020C000AA2797FDA095BA2FBC01CD010E948504D7
:1020D0009B01AC016B817C818D819E810E94C1013D
:1020E000DC01CB01BC01CD0120E030E040E853EC45
:1020F0000E941F02DC01CB01BC01CD0120E030E0D9
:1021000040E853E40E94F201DC01CB01BC01CD01A7
:102110000E94E304DC01CB019A8389838B819C813B
:10212000AD81BE81BC01CD010E94502EDC01CB01EE
:10213000BC01CD0120E030E040E85FE30E94F20105
:10214000DC01CB01BC01CD010E944900DC01CB01C7
:102150008093F401E2E5F0E0898180832D960FB64B
:10216000F894DEBF0FBECDBFCF91DF910895DF930E
:10217000CF9300D00F92CDB7DEB79A8389830F90AB
:102180000F900F90CF91DF910895EF92FF920F93F0
:102190001F93DF93CF93CDB7DEB761970FB6F89457
:1021A000DEBF0FBECDBF988B8F878FE692E1A3E095
:1021B000BBE38B879C87AD87BE876B857C858D85D0
:1021C0009E8520E030E040E853E40E941F02DC01DD
:1021D000CB018F839887A987BA878F859889AA278B
:1021E00097FDA095BA2FBC01CD010E948504DC01AA
:1021F000CB01BC01CD012F81388549855A850E94CC
:1022000055048823A4F581E08E838F859889AA27B9
:1022100097FDA095BA2FBC01CD010E948504DC0179
:10222000CB01BC01CD012F81388549855A850E949B
:102230001903DC01CB01BC01CD0120E030E040E816
:1022400053EC0E941F02DC01CB01BC01CD0120E058
:1022500030E040E853E40E94F201DC01CB01BC0114
:10226000CD010E944900DC01CB018D839CC06F81B0
:10227000788589859A850E94E304DC01CB019C0165
:102280008F8598892817390721F481E08E831D8274
:102290008AC08F859889AA2797FDA095BA2FBC017F
:1022A000CD010E948504DC01CB01BC01CD012F8151
:1022B000388549855A850E941903DC01CB01BC0190
:1022C000CD010E94502EDC01CB01BC01CD010E944A
:1022D0004900DC01CB018E838F859889AA2797FD61
:1022E000A095BA2FBC01CD010E948504DC01CB0171
:1022F000BC01CD012F81388549855A850E9419037B
:10230000DC01CB017C018D018F859889AA2797FD7F
:10231000A095BA2FBC01CD010E948504DC01CB0140
:10232000BC01CD010E94E304DC01CB01AA2797FD8B
:10233000A095BA2FBC01CD010E948504DC01CB0120
:10234000BC01CD012F81388549855A850E9419032A
:10235000DC01CB019C01AD01C801B7010E94C101A4
:10236000DC01CB0189839A83AB83BC8369817A8149
:102370008B819C8120E030E040E853EC0E941F02FA
:10238000DC01CB01BC01CD0120E030E040E853E4AA
:102390000E94F201DC01CB01BC01CD010E94490089
:1023A000DC01CB018D83E2E5F0E01082E2E5F0E0B4
:1023B0008D81808313C0E8E5F0E08081882F90E074
:1023C000817090700097B9F38E8181508E83A8E55B
:1023D000B0E0E8E5F0E0808181608C938E81882315
:1023E00051F761960FB6F894DEBF0FBECDBFCF9107
:1023F000DF911F910F91FF90EF900895DF93CF939E
:10240000CDB7DEB7A9E5B0E0E9E5F0E08081826014
:102410008C93A9E5B0E0E9E5F0E080818E7F8C93B4
:10242000CF91DF910895DF93CF930F92CDB7DEB7B1
:10243000A9E5B0E0E9E5F0E0808181608C93A9E551
:10244000B0E0E9E5F0E080818D7F8C930F90CF9133
:10245000DF910895DF93CF93CDB7DEB7AFE5B0E05E
:10246000EFE5F0E0808180688C93CF91DF91089553
:10247000DF93CF93CDB7DEB7AFE5B0E0EFE5F0E0A7
:1024800080818F778C93CF91DF910895DF93CF93E5
:1024900000D0CDB7DEB79A83898389819A8100976E
:1024A00031F089819A819093F6018093F5010F9024
:1024B0000F90CF91DF910895DF93CF9300D0CDB7E8
:1024C000DEB79A83898389819A81009731F0898167
:1024D0009A819093F8018093F7010F900F90CF911C
:1024E000DF9108951F920F920FB60F9211242F9330
:1024F0003F934F935F936F937F938F939F93AF938C
:10250000BF93EF93FF93DF93CF93CDB7DEB7809167
:10251000F9019091FA01A091FB01B091FC010196A3
:10252000A11DB11D8093F9019093FA01A093FB01C5
:10253000B093FC018091F401282F30E040E050E09E
:102540008091F9019091FA01A091FB01B091FC01F9
:10255000281739074A075B0769F4E091F501F09104
:10256000F60109951092F9011092FA011092FB01FF
:102570001092FC01CF91DF91FF91EF91BF91AF914C
:102580009F918F917F916F915F914F913F912F918B
:102590000F900FBE0F901F9018951F920F920FB6BD
:1025A0000F9211242F933F934F935F938F939F9399
:1025B000AF93BF93EF93FF93DF93CF93CDB7DEB786
:1025C0008091FD019091FE01A091FF01B091000268
:1025D0000196A11DB11D8093FD019093FE01A09372
:1025E000FF01B09300028091F401282F30E040E019
:1025F00050E08091FD019091FE01A091FF01B0910A
:102600000002281739074A075B0759F4E3E5F0E0B1
:1026100010821092FD011092FE011092FF011092A3
:102620000002CF91DF91FF91EF91BF91AF919F9108
:102630008F915F914F913F912F910F900FBE0F900F
:102640001F901895DF93CF930F92CDB7DEB7198205
:10265000E0E2F0E082E08083E1E2F0E01082E2E29A
:10266000F0E082E88083E6E5F0E084E0808381E0CA
:10267000898389810F90CF91DF910895DF93CF9364
:102680000F92CDB7DEB71982E2E2F0E082E88083F4
:10269000E6E5F0E084E0808381E0898389810F9022
:1026A000CF91DF910895DF93CF930F92CDB7DEB72F
:1026B0001982E6E5F0E084EA8083E6E5F0E08081D7
:1026C0008823DCF7E1E2F0E08081882F90E0887FCA
:1026D00090708830910519F481E0898302C087E009
:1026E000898389810F90CF91DF910895DF93CF93F4
:1026F0000F92CDB7DEB71982E6E5F0E084EA808379
:10270000E6E5F0E080818823DCF7E1E2F0E080811B
:10271000882F90E0887F90708031910519F481E0D6
:10272000898302C088E0898389810F90CF91DF91EE
:102730000895DF93CF9300D0CDB7DEB78A83198297
:10274000E3E2F0E08A81880F8083E6E5F0E084E848
:102750008083E6E5F0E080818823DCF7E1E2F0E0C9
:102760008081882F90E0887F90708831910519F4DE
:1027700081E0898302C089E0898389810F900F906D
:10278000CF91DF910895DF93CF9300D0CDB7DEB71F
:102790008A831982E3E2F0E08A81882F90E0880F33
:1027A000991F81608083E6E5F0E084E88083E6E5B8
:1027B000F0E080818823DCF7E1E2F0E08081882F7F
:1027C00090E0887F90708034910519F481E08983CE
:1027D00002C08AE0898389810F900F90CF91DF91A9
:1027E0000895DF93CF9300D0CDB7DEB78A831982E7
:1027F000E3E2F0E08A818083E6E5F0E084E880832C
:10280000E6E5F0E080818823DCF7E1E2F0E080811A
:10281000882F90E0887F90708832910519F481E0CC
:10282000898302C08BE0898389810F900F90CF91BB
:10283000DF910895DF93CF9300D00F92CDB7DEB72D
:102840009B838A831982E6E5F0E084E88083E6E5ED
:10285000F0E080818823DCF7E3E2F0E08081EA8128
:10286000FB818083E1E2F0E08081882F90E0887F27
:1028700090708035910519F481E0898302C08CE065
:10288000898389810F900F900F90CF91DF910895E8
:10289000DF93CF930F92CDB7DEB71982E6E5F0E074
:1028A00084E98083A6E5B0E0E6E5F0E08081806819
:1028B0008C9389810F90CF91DF910895DF93CF930F
:1028C0000F92CDB7DEB7EAE3F0E089E08083E7E37B
:1028D000F0E01082E4E3F0E01082E1E3F0E0108247
:1028E0000F90CF91DF910895DF93CF9300D000D068
:1028F0000F92CDB7DEB789836A838981282F30E0B4
:102900003C832B838B819C8181309105D1F02B817D
:102910003C81223031052CF48B819C81009761F041
:102920001EC02B813C812230310581F08B819C813E
:102930008330910581F013C0EAE3F0E08A8180835F
:102940000EC0E7E3F0E08A81808309C0E4E3F0E0B1
:102950008A81808304C0E1E3F0E08A8180830F9064
:102960000F900F900F900F90CF91DF910895DF930C
:10297000CF9300D000D00F92CDB7DEB789836A83A2
:102980008981282F30E03C832B838B819C8181308F
:102990009105D1F02B813C81223031052CF48B81C3
:1029A0009C81009761F01EC02B813C812230310553
:1029B00081F08B819C818330910581F013C0EBE322
:1029C000F0E08A8180830EC0E8E3F0E08A818083B2
:1029D00009C0E5E3F0E08A81808304C0E2E3F0E02F
:1029E0008A8180830F900F900F900F900F90CF915E
:1029F000DF910895DF93CF9300D000D0CDB7DEB73D
:102A000089838981282F30E03B832A838A819B81B7
:102A100081309105E9F02A813B81223031052CF487
:102A20008A819B81009761F02AC02A813B812230F4
:102A30003105B1F08A819B8183309105C9F01FC0B7
:102A4000ABE3B0E0EBE3F0E0808180958C9317C0BE
:102A5000A8E3B0E0E8E3F0E0808180958C930FC0BC
:102A6000A5E3B0E0E5E3F0E0808180958C9307C0BA
:102A7000A2E3B0E0E2E3F0E0808180958C930F90D8
:102A80000F900F900F90CF91DF910895DF93CF9328
:102A900000D000D000D0CDB7DEB789836A834B83E6
:102AA0008A81883008F0CAC08B81823008F0C6C0A5
:102AB0008981282F30E03D832C836C817D816130BA
:102AC000710509F441C08C819D818230910534F4F7
:102AD0002C813D812115310571F0B0C06C817D8163
:102AE0006230710509F459C08C819D818330910554
:102AF00009F47CC0A3C0AAE3B0E0EAE3F0E080817F
:102B0000482F8A81282F30E081E090E002C0880FB2
:102B1000991F2A95E2F7809584238C93AAE3B0E06D
:102B2000EAE3F0E08081482F8B81282F30E08A8112
:102B3000882F90E0B90102C0660F771F8A95E2F7EF
:102B4000CB01842B8C937AC0A7E3B0E0E7E3F0E0FD
:102B50008081482F8A81282F30E081E090E002C0F8
:102B6000880F991F2A95E2F7809584238C93A7E319
:102B7000B0E0E7E3F0E08081482F8B81282F30E040
:102B80008A81882F90E0B90102C0660F771F8A956D
:102B9000E2F7CB01842B8C9351C0A4E3B0E0E4E3D3
:102BA000F0E08081482F8A81282F30E081E090E09A
:102BB00002C0880F991F2A95E2F7809584238C9391
:102BC000A4E3B0E0E4E3F0E08081482F8B81282F7C
:102BD00030E08A81882F90E0B90102C0660F771F2C
:102BE0008A95E2F7CB01842B8C9328C0A1E3B0E057
:102BF000E1E3F0E08081482F8A81282F30E081E0F6
:102C000090E002C0880F991F2A95E2F780958423EF
:102C10008C93A1E3B0E0E1E3F0E08081482F8B8169
:102C2000282F30E08A81882F90E0B90102C0660F1A
:102C3000771F8A95E2F7CB01842B8C9326960FB6EB
:102C4000F894DEBF0FBECDBFCF91DF910895DF9323
:102C5000CF9300D000D000D0CDB7DEB789836A8390
:102C60004B838A81883008F0CAC08B81823008F09B
:102C7000C6C08981282F30E03D832C836C817D8103
:102C80006130710509F441C08C819D8182309105CC
:102C900034F42C813D812115310571F0B0C06C8177
:102CA0007D816230710509F459C08C819D8183302A
:102CB000910509F47CC0A3C0ABE3B0E0EBE3F0E026
:102CC0008081482F8A81282F30E081E090E002C087
:102CD000880F991F2A95E2F7809584238C93ABE3A4
:102CE000B0E0EBE3F0E08081482F8B81282F30E0CB
:102CF0008A81882F90E0B90102C0660F771F8A95FC
:102D0000E2F7CB01842B8C937AC0A8E3B0E0E8E330
:102D1000F0E08081482F8A81282F30E081E090E028
:102D200002C0880F991F2A95E2F7809584238C931F
:102D3000A8E3B0E0E8E3F0E08081482F8B81282F02
:102D400030E08A81882F90E0B90102C0660F771FBA
:102D50008A95E2F7CB01842B8C9351C0A5E3B0E0B8
:102D6000E5E3F0E08081482F8A81282F30E081E080
:102D700090E002C0880F991F2A95E2F7809584237E
:102D80008C93A5E3B0E0E5E3F0E08081482F8B81F0
:102D9000282F30E08A81882F90E0B90102C0660FA9
:102DA000771F8A95E2F7CB01842B8C9328C0A2E38E
:102DB000B0E0E2E3F0E08081482F8A81282F30E004
:102DC00081E090E002C0880F991F2A95E2F7809574
:102DD00084238C93A2E3B0E0E2E3F0E08081482F0B
:102DE0008B81282F30E08A81882F90E0B90102C0C2
:102DF000660F771F8A95E2F7CB01842B8C9326967A
:102E00000FB6F894DEBF0FBECDBFCF91DF9108950E
:102E1000DF93CF9300D000D00F92CDB7DEB7898378
:102E20006A838981282F30E03C832B838B819C81AE
:102E30008130910549F12B813C81223031052CF400
:102E40008B819C81009761F05AC02B813C8122309C
:102E5000310571F18B819C8183309105E9F14FC07F
:102E6000ABE3B0E0EBE3F0E08081482F8A81282FCC
:102E700030E081E090E0022E02C0880F991F0A9492
:102E8000E2F784278C933BC0A8E3B0E0E8E3F0E0EE
:102E90008081482F8A81282F30E081E090E0022E47
:102EA00002C0880F991F0A94E2F784278C9327C0E9
:102EB000A5E3B0E0E5E3F0E08081482F8A81282F88
:102EC00030E081E090E0022E02C0880F991F0A9442
:102ED000E2F784278C9313C0A2E3B0E0E2E3F0E0D2
:102EE0008081482F8A81282F30E081E090E0022EF7
:102EF00002C0880F991F0A94E2F784278C930F90E1
:102F00000F900F900F900F90CF91DF910895DF9366
:102F1000CF9300D000D000D0CDB7DEB789837B83BC
:102F20006A838981282F30E03D832C838C819D81A9
:102F300081309105E1F02C813D81223031052CF466
:102F40008C819D81009761F026C02C813D812230CB
:102F50003105A1F08C819D8183309105B1F01BC0BA
:102F6000E9E3F0E08081EA81FB81808314C0E6E33D
:102F7000F0E08081EA81FB8180830DC0E3E3F0E033
:102F80008081EA81FB81808306C0E0E3F0E08081FC
:102F9000EA81FB81808326960FB6F894DEBF0FBED0
:102FA000CDBFCF91DF910895DF93CF93CDB7DEB73B
:102FB00027970FB6F894DEBF0FBECDBF89836A8313
:102FC0005C834B838981282F30E03E832D834D81A4
:102FD0005E814130510559F18D819E81823091058C
:102FE00034F42D813E812115310569F05BC04D819E
:102FF0005E814230510579F18D819E81833091054A
:1030000009F43DC04FC0E9E3F0E08081282F30E0B3
:103010008A81882F90E0A90102C0559547958A952D
:10302000E2F7CA018170EB81FC8180833BC0E6E35B
:10303000F0E08081282F30E08A81882F90E0A9017C
:1030400002C0559547958A95E2F7CA018170EB81D8
:10305000FC81808327C0E3E3F0E08081282F30E00B
:103060008A81882F90E0A90102C0559547958A95DD
:10307000E2F7CA018170EB81FC81808313C0E0E339
:10308000F0E08081282F30E08A81882F90E0A9012C
:1030900002C0559547958A95E2F7CA018170EB8188
:1030A000FC81808327960FB6F894DEBF0FBECDBF9C
:1030B000CF91DF910895DF93CF93CDB7DEB7A7E22D
:1030C000B0E0E7E2F0E0808180648C93A7E2B0E0BA
:1030D000E7E2F0E0808180688C93A7E2B0E0E7E26D
:1030E000F0E0808181608C93A7E2B0E0E7E2F0E05D
:1030F000808182608C93A7E2B0E0E7E2F0E080811B
:1031000084608C93A6E2B0E0E6E2F0E08081806823
:103110008C93A6E2B0E0E6E2F0E0808180628C93DE
:10312000A6E2B0E0E6E2F0E0808184608C93A6E263
:10313000B0E0E6E2F0E0808182608C93CF91DF9195
:103140000895DF93CF9300D0CDB7DEB79A838983FC
:10315000A6E2B0E0E6E2F0E0808180648C93E6E2F3
:10316000F0E0808182958F70882F90E08170907060
:103170000097A9F3A6E2B0E0E6E2F0E0808180618A
:103180008C93E4E2F0E08081882F90E0E981FA817D
:1031900091838083E981FA8120813181E5E2F0E049
:1031A0008081882F90E0982F8827822B932BE981AC
:1031B000FA81918380830F900F90CF91DF910895D2
:1031C000DF93CF930F92CDB7DEB781E061E040E0AF
:1031D0000E94461581E061E041E00E9427160F90B1
:1031E000CF91DF910895DF93CF9300D000D00F925D
:1031F000CDB7DEB789836A835C834B832B813C81A7
:1032000089816A81A9010E94D4170F900F900F90B5
:103210000F900F90CF91DF910895DF93CF930F928E
:10322000CDB7DEB781E062E041E00E94461581E063
:1032300063E041E00E9446150F90CF91DF91089521
:10324000DF93CF9300D00F92CDB7DEB789836A8327
:1032500089816A8141E00E9427160F900F900F909C
:10326000CF91DF910895DF93CF9300D00F92CDB728
:10327000DEB789836A8389816A8140E00E942716CC
:103280000F900F900F90CF91DF910895DF93CF9320
:1032900000D00F92CDB7DEB789836A8389816A81B6
:1032A0000E9408170F900F900F90CF91DF91089513
:1032B000DF93CF930F92CDB7DEB7898380E064E0D0
:1032C00041E00E94271680E065E040E00E9427165A
:1032D000898182958F70982F917080E060E0492FEE
:1032E0000E9427168981829586958770982F917004
:1032F00080E061E0492F0E9427168981829586959A
:1033000086958370982F917080E062E0492F0E942B
:1033100027168981982F991F9927991F80E063E0CC
:10332000492F0E9427160E947F208981982F917033
:1033300080E060E0492F0E94271689818695982FAA
:10334000917080E061E0492F0E942716898186955F
:103350008695982F917080E062E0492F0E94271691
:103360008981869586958695982F917080E063E097
:10337000492F0E9427160E947F200F90CF91DF9146
:103380000895DF93CF93CDB7DEB7E8970FB6F894E3
:10339000DEBF0FBECDBF80E060E041E00E94461579
:1033A00080E061E041E00E94461580E062E041E09B
:1033B0000E94461580E063E041E00E94461580E0EF
:1033C00064E041E00E94461580E065E041E00E9433
:1033D000461580E066E041E00E94461580E066E028
:1033E00040E00E94271680E090E0A0EFB1E48DABB2
:1033F0009EABAFABB8AF6DA97EA98FA998AD20E009
:1034000030E04AE753E40E941F02DC01CB0189ABA4
:103410009AABABABBCAB69A97AA98BA99CA920E0FC
:1034200030E040E85FE30E94550488232CF481E0FB
:1034300090E098AB8FA73FC069A97AA98BA99CA9F6
:1034400020E03FEF4FE757E40E94F50318164CF5D4
:103450006DA97EA98FA998AD20E030E040E251E44B
:103460000E941F02DC01CB01BC01CD010E9449007A
:10347000DC01CB0198AB8FA70FC089E190E09EA73C
:103480008DA78DA59EA50197F1F79EA78DA78FA566
:1034900098A9019798AB8FA78FA598A9009769F76E
:1034A00014C069A97AA98BA99CA90E944900DC01D2
:1034B000CB0198AB8FA78FA598A99CA78BA78BA5AD
:1034C0009CA50197F1F79CA78BA783E30E94E61FB9
:1034D00082E30E94E61F88E20E94E61F80E090E0FF
:1034E000A0E8BFE38FA398A7A9A7BAA76FA178A563
:1034F00089A59AA520E030E04AE753E40E941F0224
:10350000DC01CB018BA39CA3ADA3BEA36BA17CA1CB
:103510008DA19EA120E030E040E85FE30E945504C9
:1035200088232CF481E090E09AA389A33FC06BA18B
:103530007CA18DA19EA120E03FEF4FE757E40E94C0
:10354000F50318164CF56FA178A589A59AA520E07A
:1035500030E040E251E40E941F02DC01CB01BC01DB
:10356000CD010E944900DC01CB019AA389A30FC0C1
:1035700089E190E098A38F8F8F8D98A10197F1F743
:1035800098A38F8F89A19AA101979AA389A389A152
:103590009AA1009769F714C06BA17CA18DA19EA18F
:1035A0000E944900DC01CB019AA389A389A19AA1B9
:1035B0009E8F8D8F8D8D9E8D0197F1F79E8F8D8FB4
:1035C0008EE00E94E61F80E090E0A0E8BFE3898FD4
:1035D0009A8FAB8FBC8F698D7A8D8B8D9C8D20E0FF
:1035E00030E04AE753E40E941F02DC01CB018D8BDF
:1035F0009E8BAF8BB88F6D897E898F89988D20E0E7
:1036000030E040E85FE30E94550488232CF481E019
:1036100090E09C8B8B8B3FC06D897E898F89988DC4
:1036200020E03FEF4FE757E40E94F50318164CF5F2
:10363000698D7A8D8B8D9C8D20E030E040E251E4E5
:103640000E941F02DC01CB01BC01CD010E94490098
:10365000DC01CB019C8B8B8B0FC089E190E09A8BB6
:10366000898B89899A890197F1F79A8B898B8B8944
:103670009C8901979C8B8B8B8B899C89009769F720
:1036800014C06D897E898F89988D0E944900DC0164
:10369000CB019C8B8B8B8B899C89988B8F878F859B
:1036A00098890197F1F7988B8F8781E00E94E61F38
:1036B00080E090E0A0E0B0E48B879C87AD87BE8778
:1036C0006B857C858D859E8520E030E04AE753E45C
:1036D0000E941F02DC01CB018F839887A987BA87DC
:1036E0006F81788589859A8520E030E040E85FE346
:1036F0000E94550488232CF481E090E09E838D8302
:103700003FC06F81788589859A8520E03FEF4FE73C
:1037100057E40E94F50318164CF56B857C858D8562
:103720009E8520E030E040E251E40E941F02DC016F
:10373000CB01BC01CD010E944900DC01CB019E837D
:103740008D830FC089E190E09C838B838B819C816A
:103750000197F1F79C838B838D819E8101979E83D6
:103760008D838D819E81009769F714C06F81788564
:1037700089859A850E944900DC01CB019E838D8357
:103780008D819E819A83898389819A810197F1F73E
:103790009A83898386E00E94E61FE8960FB6F89424
:1037A000DEBF0FBECDBFCF91DF910895DF93CF93E2
:1037B000CDB7DEB72E970FB6F894DEBF0FBECDBFE4
:1037C00081E00E94E61F80E090E0A0E0B0E48B87FB
:1037D0009C87AD87BE876B857C858D859E8520E027
:1037E00030E04AE753E40E941F02DC01CB018F83E3
:1037F0009887A987BA876F81788589859A8520E01F
:1038000030E040E85FE30E94550488232CF481E017
:1038100090E09E838D833FC06F81788589859A85EE
:1038200020E03FEF4FE757E40E94F50318164CF5F0
:103830006B857C858D859E8520E030E040E251E4FB
:103840000E941F02DC01CB01BC01CD010E94490096
:10385000DC01CB019E838D830FC089E190E09C83C6
:103860008B838B819C810197F1F79C838B838D8166
:103870009E8101979E838D838D819E81009769F73C
:1038800014C06F81788589859A850E944900DC0182
:10389000CB019E838D838D819E819A8389838981CB
:1038A0009A810197F1F79A8389832E960FB6F8943F
:1038B000DEBF0FBECDBFCF91DF910895DF93CF93D1
:1038C000CDB7DEB72E970FB6F894DEBF0FBECDBFD3
:1038D0008CE00E94E61F80E090E0A0E0B0E48B87DF
:1038E0009C87AD87BE876B857C858D859E8520E016
:1038F00030E04AE753E40E941F02DC01CB018F83D2
:103900009887A987BA876F81788589859A8520E00D
:1039100030E040E85FE30E94550488232CF481E006
:1039200090E09E838D833FC06F81788589859A85DD
:1039300020E03FEF4FE757E40E94F50318164CF5DF
:103940006B857C858D859E8520E030E040E251E4EA
:103950000E941F02DC01CB01BC01CD010E94490085
:10396000DC01CB019E838D830FC089E190E09C83B5
:103970008B838B819C810197F1F79C838B838D8155
:103980009E8101979E838D838D819E81009769F72B
:1039900014C06F81788589859A850E944900DC0171
:1039A000CB019E838D838D819E819A8389838981BA
:1039B0009A810197F1F79A8389832E960FB6F8942E
:1039C000DEBF0FBECDBFCF91DF910895DF93CF93C0
:1039D000CDB7DEB72E970FB6F894DEBF0FBECDBFC2
:1039E0008EE00E94E61F80E090E0A0E0B0E48B87CC
:1039F0009C87AD87BE876B857C858D859E8520E005
:103A000030E04AE753E40E941F02DC01CB018F83C0
:103A10009887A987BA876F81788589859A8520E0FC
:103A200030E040E85FE30E94550488232CF481E0F5
:103A300090E09E838D833FC06F81788589859A85CC
:103A400020E03FEF4FE757E40E94F50318164CF5CE
:103A50006B857C858D859E8520E030E040E251E4D9
:103A60000E941F02DC01CB01BC01CD010E94490074
:103A7000DC01CB019E838D830FC089E190E09C83A4
:103A80008B838B819C810197F1F79C838B838D8144
:103A90009E8101979E838D838D819E81009769F71A
:103AA00014C06F81788589859A850E944900DC0160
:103AB000CB019E838D838D819E819A8389838981A9
:103AC0009A810197F1F79A8389832E960FB6F8941D
:103AD000DEBF0FBECDBFCF91DF910895DF93CF93AF
:103AE00000D00F92CDB7DEB79B838A8319820EC0B8
:103AF0008981282F30E08A819B81FC01E20FF31F2E
:103B000080810E94581989818F5F89838981282F3C
:103B100030E08A819B81FC01E20FF31F80818823C2
:103B200039F70F900F900F90CF91DF910895DF93A9
:103B3000CF9300D0CDB7DEB789836A83898188238C
:103B400029F48A8180580E94E61F07C0898181304C
:103B500021F48A8180540E94E61F0F900F90CF912C
:103B6000DF910895DF93CF93CDB7DEB7A1970FB65E
:103B7000F894DEBF0FBECDBF8E8F6F8F59A348A3C1
:103B80001D8E1D8EF9C08E8D6D8D0E94971D88A192
:103B900099A10E946E1D8F8D882F90E0A0E0B0E06B
:103BA000BC01CD010E943705DC01CB01898F9A8FC2
:103BB000AB8FBC8F698D7A8D8B8D9C8D20E030E032
:103BC0004AE753E40E941F02DC01CB018D8B9E8BE0
:103BD000AF8BB88F6D897E898F89988D20E030E01A
:103BE00040E85FE30E94550488232CF481E090E0D4
:103BF0009C8B8B8B3FC06D897E898F89988D20E04F
:103C00003FEF4FE757E40E94F50318164CF5698D16
:103C10007A8D8B8D9C8D20E030E040E251E40E9453
:103C20001F02DC01CB01BC01CD010E944900DC0177
:103C3000CB019C8B8B8B0FC089E190E09A8B898B99
:103C400089899A890197F1F79A8B898B8B899C894D
:103C500001979C8B8B8B8B899C89009769F714C08B
:103C60006D897E898F89988D0E944900DC01CB0186
:103C70009C8B8B8B8B899C89988B8F878F85988960
:103C80000197F1F7988B8F8781E00E94E61F80E013
:103C900090E0A0E0B0E48B879C87AD87BE876B8502
:103CA0007C858D859E8520E030E04AE753E40E94C4
:103CB0001F02DC01CB018F839887A987BA876F81A8
:103CC000788589859A8520E030E040E85FE30E94AE
:103CD000550488232CF481E090E09E838D833FC0BF
:103CE0006F81788589859A8520E03FEF4FE757E41B
:103CF0000E94F50318164CF56B857C858D859E8595
:103D000020E030E040E251E40E941F02DC01CB01E0
:103D1000BC01CD010E944900DC01CB019E838D8353
:103D20000FC089E190E09C838B838B819C810197FC
:103D3000F1F79C838B838D819E8101979E838D8378
:103D40008D819E81009769F714C06F817885898580
:103D50009A850E944900DC01CB019E838D838D8171
:103D60009E819A83898389819A810197F1F79A8349
:103D700089838D8D8F5F8D8F8D8D8F3008F403CF6C
:103D8000A1960FB6F894DEBF0FBECDBFCF91DF91E5
:103D90000895DF93CF93CDB7DEB727970FB6F8948A
:103DA000DEBF0FBECDBF9F838E831D821C828E819E
:103DB0009F819A8389838E819F81009789F480E314
:103DC0000E94581948C089819A812AE030E0B901DF
:103DD0000E94052ECB019A8389838C818F5F8C830F
:103DE00089819A81009779F78E819F819A8389834F
:103DF0001D822DC09C818D81292F281B822F982FF9
:103E000091508AE0692F0E944F209C0189819A81FC
:103E1000B9010E94052ECB018B838B81805D0E94AE
:103E200058199C818D81292F281B822F982F915002
:103E30008AE0692F0E944F209C0189819A81B901F3
:103E40000E94052E9A8389838D818F5F8D839D814A
:103E50008C81981778F227960FB6F894DEBF0FBEC4
:103E6000CDBFCF91DF910895DF93CF93CDB7DEB76C
:103E700064970FB6F894DEBF0FBECDBF898B6A8BF7
:103E80005C8B4B8B80E40E94E61F188A0EC08889E9
:103E9000282F30E08B899C89FC01E20FF31F808181
:103EA0000E94581988898F5F888B8889803478F3BD
:103EB00080E80E94E61F89896A890E94971D1F86F3
:103EC00078C08F850E94581980E090E0A0EAB0E4A5
:103ED0008B879C87AD87BE876B857C858D859E850E
:103EE00020E030E04AE753E40E941F02DC01CB01EE
:103EF0008F839887A987BA876F81788589859A8506
:103F000020E030E040E85FE30E94550488232CF471
:103F100081E090E09E838D833FC06F8178858985A5
:103F20009A8520E03FEF4FE757E40E94F50318160B
:103F30004CF56B857C858D859E8520E030E040E2E8
:103F400051E40E941F02DC01CB01BC01CD010E94A3
:103F50004900DC01CB019E838D830FC089E190E095
:103F60009C838B838B819C810197F1F79C838B834E
:103F70008D819E8101979E838D838D819E81009787
:103F800069F714C06F81788589859A850E944900F8
:103F9000DC01CB019E838D838D819E819A838983F1
:103FA00089819A810197F1F79A8389838F858F5F41
:103FB0008F878F85883008F484CF64960FB6F89485
:103FC000DEBF0FBECDBFCF91DF910895DF93CF93BA
:103FD0000F92CDB7DEB7898380E064E040E00E94B5
:103FE000271680E065E040E00E94271689818295CF
:103FF0008F70982F917080E060E0492F0E94271603
:104000008981829586958770982F917080E061E014
:10401000492F0E94271689818295869586958370FF
:10402000982F917080E062E0492F0E9427168981C5
:10403000982F991F9927991F80E063E0492F0E94CC
:1040400027160E947F208981982F917080E060E080
:10405000492F0E94271689818695982F917080E0BC
:1040600061E0492F0E942716898186958695982FB1
:10407000917080E062E0492F0E9427168981869521
:1040800086958695982F917080E063E0492F0E9475
:1040900027160E947F200F90CF91DF910895DF9324
:1040A000CF9300D000D00F92CDB7DEB78C836D8355
:1040B00081E090E09B838A831982198212C08C81EF
:1040C000282F30E08A819B81AC01429FC001439F31
:1040D000900D529F900D11249B838A8389818F5F5D
:1040E000898399818D81981750F38A819B810F90E4
:1040F0000F900F900F900F90CF91DF910895DF9365
:10410000CF93CDB7DEB76C970FB6F894DEBF0FBE76
:10411000CDBF80E066E041E00E94271680E090E09D
:10412000A0E8BFE3898F9A8FAB8FBC8F698D7A8DA2
:104130008B8D9C8D20E030E04AE753E40E941F0203
:10414000DC01CB018D8B9E8BAF8BB88F6D897E8907
:104150008F89988D20E030E040E85FE30E945504AD
:1041600088232CF481E090E09C8B8B8B3FC06D8981
:104170007E898F89988D20E03FEF4FE757E40E94BA
:10418000F50318164CF5698D7A8D8B8D9C8D20E08A
:1041900030E040E251E40E941F02DC01CB01BC018F
:1041A000CD010E944900DC01CB019C8B8B8B0FC0A1
:1041B00089E190E09A8B898B89899A890197F1F737
:1041C0009A8B898B8B899C8901979C8B8B8B8B8994
:1041D0009C89009769F714C06D897E898F89988DB5
:1041E0000E944900DC01CB019C8B8B8B8B899C89C5
:1041F000988B8F878F8598890197F1F7988B8F8798
:1042000080E066E040E00E94271680E090E0A0E8B1
:10421000BFE38B879C87AD87BE876B857C858D854B
:104220009E8520E030E04AE753E40E941F02DC0153
:10423000CB018F839887A987BA876F817885898515
:104240009A8520E030E040E85FE30E94550488232F
:104250002CF481E090E09E838D833FC06F81788550
:1042600089859A8520E03FEF4FE757E40E94F503E8
:1042700018164CF56B857C858D859E8520E030E099
:1042800040E251E40E941F02DC01CB01BC01CD01E0
:104290000E944900DC01CB019E838D830FC089E120
:1042A00090E09C838B838B819C810197F1F79C83A9
:1042B0008B838D819E8101979E838D838D819E81CD
:1042C000009769F714C06F81788589859A850E9467
:1042D0004900DC01CB019E838D838D819E819A8371
:1042E000898389819A810197F1F79A8389836C96F2
:1042F0000FB6F894DEBF0FBECDBFCF91DF9108950A
:10430000DF93CF930F92CDB7DEB782E064E041E058
:104310000E94461582E065E041E00E94461582E079
:1043200066E041E00E94461582E067E041E00E94BD
:10433000461582E064E041E00E94271682E065E0D5
:1043400041E00E94271682E066E041E00E942716C5
:1043500082E067E041E00E94271683E060E040E0F1
:104360000E94461583E061E040E00E94461582E02D
:1043700062E040E00E94461582E063E040E00E9477
:10438000461583E060E041E00E94271683E061E08B
:1043900041E00E94271682E062E041E00E94271679
:1043A00082E063E041E00E9427160F90CF91DF91F9
:1043B0000895DF93CF93CDB7DEB7E8970FB6F894A3
:1043C000DEBF0FBECDBF9BAB8AABCE0142969DAB8D
:1043D0008CABE4EEF1E0FFABEEABF0E1F8AFEEA9B1
:1043E000FFA900808EA99FA901969FAB8EABECA977
:1043F000FDA900828CA99DA901969DAB8CAB98ADBF
:10440000915098AFE8ADEE2351F783E08AA383E0A3
:104410008BA382E08CA382E08DA382E08EA382E056
:104420008FA382E088A782E089A71AA681E08BA7E4
:1044300082E08CA783E08DA784E08EA785E08FA71C
:1044400086E088AB87E089AB1F863DC18F85282F2A
:1044500030E0CE018696FC01E20FF31F40818F858C
:10446000282F30E0CE018E96FC01E20FF31F9081E1
:10447000842F692F40E00E942716188A06C1888978
:10448000282F30E0CE018296FC01E20FF31F40811D
:104490008889282F30E0CE018A96FC01E20FF31FB5
:1044A00090819E012F5E3F4F842F692FA9010E94AA
:1044B000D4178989882309F0E5C080E090E0A0E264
:1044C000B1E48B879C87AD87BE876B857C858D85A6
:1044D0009E8520E030E04AE753E40E941F02DC01A1
:1044E000CB018F839887A987BA876F817885898563
:1044F0009A8520E030E040E85FE30E94550488237D
:104500002CF481E090E09E838D833FC06F8178859D
:1045100089859A8520E03FEF4FE757E40E94F50335
:1045200018164CF56B857C858D859E8520E030E0E6
:1045300040E251E40E941F02DC01CB01BC01CD012D
:104540000E944900DC01CB019E838D830FC089E16D
:1045500090E09C838B838B819C810197F1F79C83F6
:104560008B838D819E8101979E838D838D819E811A
:10457000009769F714C06F81788589859A850E94B4
:104580004900DC01CB019E838D838D819E819A83BE
:10459000898389819A810197F1F79A838983888930
:1045A000282F30E0CE018296FC01E20FF31F4081FC
:1045B0008889282F30E0CE018A96FC01E20FF31F94
:1045C00090819E012F5E3F4F842F692FA9010E9489
:1045D000D4178989882309F055C01AC08889282FE3
:1045E00030E0CE018296FC01E20FF31F4081888902
:1045F000282F30E0CE018A96FC01E20FF31F908154
:104600009E012F5E3F4F842F692FA9010E94D4176E
:104610008989882319F38F85282F30E0CE0186966B
:10462000FC01E20FF31F40818F85282F30E0CE017F
:104630008E96FC01E20FF31F9081842F692F41E0D9
:104640000E9427168889282F30E08F85482F50E058
:10465000220F331F220F331FCE010196820F931FAB
:10466000840F951FFC0171968081EAA9FBA98083C4
:1046700081E0E8960FB6F894DEBF0FBECDBFCF91B4
:10468000DF91089588898F5F888B8889843008F44A
:10469000F6CE8F85282F30E0CE018696FC01E20F02
:1046A000F31F40818F85282F30E0CE018E96FC01CC
:1046B000E20FF31F9081842F692F41E00E9427169B
:1046C0008F858F5F8F878F85843008F4BFCEBCCEF7
:1046D0000F931F93DF93CF93CDB7DEB7C455D04070
:1046E0000FB6F894DEBF0FBECDBF82E360E070E08E
:1046F0000E949F26FE01EF5AFF4F80E090E0A8E461
:10470000B2E480839183A283B3838E01035B1F4F46
:10471000FE01EF5AFF4F608171818281938120E019
:1047200030E04AE753E40E941F02DC01CB01F801AC
:1047300080839183A283B383FE01E35BFF4F60819B
:1047400071818281938120E030E040E85FE30E9444
:104750005504882344F4FE01E55BFF4F81E090E0BF
:104760009183808364C0FE01E35BFF4F60817181B0
:104770008281938120E03FEF4FE757E40E94F503E9
:1047800018160CF043C0FE01EF5AFF4F6081718193
:104790008281938120E030E040E251E40E941F02D8
:1047A000DC01CB018E01055B1F4FBC01CD010E94D6
:1047B0004900DC01CB01F801918380831FC0FE0119
:1047C000E75BFF4F89E190E091838083FE01E75B27
:1047D000FF4F808191810197F1F7FE01E75BFF4F69
:1047E00091838083DE01A55BBF4FFE01E55BFF4F38
:1047F00080819181019711969C938E93FE01E55BD8
:10480000FF4F808191810097D1F627C08E01055B13
:104810001F4FFE01E35BFF4F6081718182819381B5
:104820000E944900DC01CB01F80191838083DE0105
:10483000A95BBF4FFE01E55BFF4F808191818D93A6
:104840009C93FE01E95BFF4F808191810197F1F715
:10485000FE01E95BFF4F918380838BE064E170E0B0
:104860000E949F26FE01ED5BFF4F80E090E0A8E4F0
:10487000B2E480839183A283B3838E01015C1F4FD6
:10488000FE01ED5BFF4F608171818281938120E0A9
:1048900030E04AE753E40E941F02DC01CB01F8013B
:1048A00080839183A283B383FE01FF96608171812F
:1048B0008281938120E030E040E85FE30E9455046C
:1048C00088232CF481E090E09EAF8DAF46C0FE01BE
:1048D000FF96608171818281938120E03FEF4FE7F5
:1048E00057E40E94F503181664F5FE01ED5BFF4FD7
:1048F000608171818281938120E030E040E251E467
:104900000E941F02DC01CB01BC01CD010E944900C5
:10491000DC01CB019EAF8DAF0FC089E190E09CAF71
:104920008BAF8BAD9CAD0197F1F79CAF8BAF8DAD8D
:104930009EAD01979EAF8DAF8DAD9EAD009769F78F
:1049400016C0FE01FF9660817181828193810E9471
:104950004900DC01CB019EAF8DAF8DAD9EAD9AAF0E
:1049600089AF89AD9AAD0197F1F79AAF89AF8CE520
:1049700068E270E00E949F2680E090E0A8E4B2E444
:104980008DAB9EABAFABB8AF6DA97EA98FA998AD2B
:1049900020E030E04AE753E40E941F02DC01CB0133
:1049A00089AB9AABABABBCAB69A97AA98BA99CA923
:1049B00020E030E040E85FE30E94550488232CF4B7
:1049C00081E090E098AB8FA73FC069A97AA98BA935
:1049D0009CA920E03FEF4FE757E40E94F50318162B
:1049E0004CF56DA97EA98FA998AD20E030E040E29A
:1049F00051E40E941F02DC01CB01BC01CD010E94E9
:104A00004900DC01CB0198AB8FA70FC089E190E092
:104A10009EA78DA78DA59EA50197F1F79EA78DA7AF
:104A20008FA598A9019798AB8FA78FA598A90097F4
:104A300069F714C069A97AA98BA99CA90E944900A9
:104A4000DC01CB0198AB8FA78FA598A99CA78BA75A
:104A50008BA59CA50197F1F79CA78BA78FE06CE332
:104A600070E00E949F2680E090E0A8E4B2E48FA36B
:104A700098A7A9A7BAA76FA178A589A59AA520E0AC
:104A800030E04AE753E40E941F02DC01CB018BA314
:104A90009CA3ADA3BEA36BA17CA18DA19EA120E090
:104AA00030E040E85FE30E94550488232CF481E065
:104AB00090E09AA389A33FC06BA17CA18DA19EA188
:104AC00020E03FEF4FE757E40E94F50318164CF53E
:104AD0006FA178A589A59AA520E030E040E251E4D5
:104AE0000E941F02DC01CB01BC01CD010E944900E4
:104AF000DC01CB019AA389A30FC089E190E098A3C0
:104B00008F8F8F8D98A10197F1F798A38F8F89A12F
:104B10009AA101979AA389A389A19AA1009769F7FD
:104B200014C06BA17CA18DA19EA10E944900DC0153
:104B3000CB019AA389A389A19AA19E8F8D8F8D8D78
:104B40009E8D0197F1F79E8F8D8F81E06AE570E071
:104B50000E949F2680E090E0A8E4B2E4898F9A8FBB
:104B6000AB8FBC8F698D7A8D8B8D9C8D20E030E072
:104B70004AE753E40E941F02DC01CB018D8B9E8B20
:104B8000AF8BB88F6D897E898F89988D20E030E05A
:104B900040E85FE30E94550488232CF481E090E014
:104BA0009C8B8B8B3FC06D897E898F89988D20E08F
:104BB0003FEF4FE757E40E94F50318164CF5698D57
:104BC0007A8D8B8D9C8D20E030E040E251E40E9494
:104BD0001F02DC01CB01BC01CD010E944900DC01B8
:104BE000CB019C8B8B8B0FC089E190E09A8B898BDA
:104BF00089899A890197F1F79A8B898B8B899C898E
:104C000001979C8B8B8B8B899C89009769F714C0CB
:104C10006D897E898F89988D0E944900DC01CB01C6
:104C20009C8B8B8B8B899C89988B8F878F859889A0
:104C30000197F1F7988B8F8781E06FE570E00E9414
:104C40009F2680E090E0A8E4B2E48B879C87AD8744
:104C5000BE876B857C858D859E8520E030E04AE7A8
:104C600053E40E941F02DC01CB018F839887A98740
:104C7000BA876F81788589859A8520E030E040E8A1
:104C80005FE30E94550488232CF481E090E09E832A
:104C90008D833FC06F81788589859A8520E03FEFBD
:104CA0004FE757E40E94F50318164CF56B857C8599
:104CB0008D859E8520E030E040E251E40E941F0295
:104CC000DC01CB01BC01CD010E944900DC01CB011C
:104CD0009E838D830FC089E190E09C838B838B81C1
:104CE0009C810197F1F79C838B838D819E81019735
:104CF0009E838D838D819E81009769F714C06F819B
:104D0000788589859A850E944900DC01CB019E83C4
:104D10008D838D819E819A83898389819A81019770
:104D2000F1F79A838983CC5ADF4F0FB6F894DEBF30
:104D30000FBECDBFCF91DF911F910F910895DF93EB
:104D4000CF9300D000D00F92CDB7DEB78B837D8399
:104D50006C831A828C819D8180709770892F99272E
:104D6000806589830E94531389810E9499138C81E5
:104D70000E94F1138B810E94F1130E9448148A81D2
:104D80000F900F900F900F900F90CF91DF9108959B
:104D9000DF93CF9300D000D000D0CDB7DEB79C8397
:104DA0008B837E836D831A828D819E818070977044
:104DB000892F9927806589830E94531389810E94D6
:104DC00099138D810E94F1130E94761389810E94AC
:104DD000C3138B819C810E941A140E9448148A81FB
:104DE00026960FB6F894DEBF0FBECDBFCF91DF91F0
:104DF0000895DF93CF93CDB7DEB783E067E041E05E
:104E00000E944615CF91DF910895DF93CF93CDB7E0
:104E1000DEB783E067E041E00E942716CF91DF9183
:104E20000895DF93CF93CDB7DEB783E067E040E02E
:104E30000E942716CF91DF910895DF93CF9300D082
:104E4000CDB7DEB7CE0101960E94A11889819A8163
:104E5000CC01A0E0B0E0BC01CD010E943705DC012F
:104E6000CB01BC01CD0120E030E040E85EE30E94D0
:104E70001F02DC01CB01BC01CD010E944900DC0115
:104E8000CB019A83898389819A818D31910510F0B4
:104E90000E94052789819A818531910510F40E942D
:104EA00011270F900F90CF91DF910895DF93CF934B
:104EB000CDB7DEB7AA970FB6F894DEBF0FBECDBF51
:104EC00081E068E270E00E949F2680E090E0A8E424
:104ED000B2E48FA398A7A9A7BAA76FA178A589A5BF
:104EE0009AA520E030E04AE753E40E941F02DC016B
:104EF000CB018BA39CA3ADA3BEA36BA17CA18DA171
:104F00009EA120E030E040E85FE30E945504882342
:104F10002CF481E090E09AA389A33FC06BA17CA10F
:104F20008DA19EA120E03FEF4FE757E40E94F503DB
:104F300018164CF56FA178A589A59AA520E030E058
:104F400040E251E40E941F02DC01CB01BC01CD0113
:104F50000E944900DC01CB019AA389A30FC089E11B
:104F600090E098A38F8F8F8D98A10197F1F798A368
:104F70008F8F89A19AA101979AA389A389A19AA148
:104F8000009769F714C06BA17CA18DA19EA10E941E
:104F90004900DC01CB019AA389A389A19AA19E8F24
:104FA0008D8F8D8D9E8D0197F1F79E8F8D8F8DE466
:104FB0006CE370E00E949F2680E090E0A8E4B2E4F9
:104FC000898F9A8FAB8FBC8F698D7A8D8B8D9C8DDD
:104FD00020E030E04AE753E40E941F02DC01CB01ED
:104FE0008D8B9E8BAF8BB88F6D897E898F89988DC5
:104FF00020E030E040E85FE30E94550488232CF471
:1050000081E090E09C8B8B8B3FC06D897E898F897E
:10501000988D20E03FEF4FE757E40E94F503181604
:105020004CF5698D7A8D8B8D9C8D20E030E040E2CF
:1050300051E40E941F02DC01CB01BC01CD010E94A2
:105040004900DC01CB019C8B8B8B0FC089E190E088
:105050009A8B898B89899A890197F1F79A8B898B29
:105060008B899C8901979C8B8B8B8B899C89009762
:1050700069F714C06D897E898F89988D0E944900D7
:10508000DC01CB019C8B8B8B8B899C89988B8F87C8
:105090008F8598890197F1F7988B8F8781E06FE56D
:1050A00070E00E949F2680E090E0A8E4B2E48B8745
:1050B0009C87AD87BE876B857C858D859E8520E02E
:1050C00030E04AE753E40E941F02DC01CB018F83EA
:1050D0009887A987BA876F81788589859A8520E026
:1050E00030E040E85FE30E94550488232CF481E01F
:1050F00090E09E838D833FC06F81788589859A85F6
:1051000020E03FEF4FE757E40E94F50318164CF5F7
:105110006B857C858D859E8520E030E040E251E402
:105120000E941F02DC01CB01BC01CD010E9449009D
:10513000DC01CB019E838D830FC089E190E09C83CD
:105140008B838B819C810197F1F79C838B838D816D
:105150009E8101979E838D838D819E81009769F743
:1051600014C06F81788589859A850E944900DC0189
:10517000CB019E838D838D819E819A8389838981D2
:105180009A810197F1F79A838983AA960FB6F894CA
:10519000DEBF0FBECDBFCF91DF910895DF93CF93D8
:1051A000CDB7DEB761970FB6F894DEBF0FBECDBFA7
:1051B0000E94D61B80E690E00E946E1DCE014196B3
:1051C0000E94D92189898053898B8989882F90E011
:1051D0009C012150304080915202882F90E0281786
:1051E00039070CF088C00E94D61B80912A02888B58
:1051F0008889882F90E00E94C91E80913E028F8787
:1052000081E060E00E94971D8F85882F90E00E94CA
:10521000C91E80E090E4ACE9B5E48B879C87AD873C
:10522000BE876B857C858D859E8520E030E04AE7D2
:1052300053E40E941F02DC01CB018F839887A9876A
:10524000BA876F81788589859A8520E030E040E8CB
:105250005FE30E94550488232CF481E090E09E8354
:105260008D833FC06F81788589859A8520E03FEFE7
:105270004FE757E40E94F50318164CF56B857C85C3
:105280008D859E8520E030E040E251E40E941F02BF
:10529000DC01CB01BC01CD010E944900DC01CB0146
:1052A0009E838D830FC089E190E09C838B838B81EB
:1052B0009C810197F1F79C838B838D819E8101975F
:1052C0009E838D838D819E81009769F714C06F81C5
:1052D000788589859A850E944900DC01CB019E83EF
:1052E0008D838D819E819A83898389819A8101979B
:1052F000F1F79A83898361960FB6F894DEBF0FBEEB
:10530000CDBFCF91DF910895DF93CF93CDB7DEB7B7
:105310002F970FB6F894DEBF0FBECDBF0E94E018E6
:105320000E945B180E94C1190E9480210E940D19E1
:105330000E94F9260E9422130E94CE0F88E893E172
:105340000E94FB0F0E9413128DE197E20E94461209
:105350000E942A120E94682381E092E00E94A50721
:1053600080E090E0AAEFB3E48B879C87AD87BE878F
:105370006B857C858D859E8520E030E04AE753E48F
:105380000E941F02DC01CB018F839887A987BA870F
:105390006F81788589859A8520E030E040E85FE379
:1053A0000E94550488232CF481E090E09E838D8335
:1053B0003FC06F81788589859A8520E03FEF4FE770
:1053C00057E40E94F50318164CF56B857C858D8596
:1053D0009E8520E030E040E251E40E941F02DC01A3
:1053E000CB01BC01CD010E944900DC01CB019E83B1
:1053F0008D830FC089E190E09C838B838B819C819E
:105400000197F1F79C838B838D819E8101979E8309
:105410008D838D819E81009769F714C06F81788597
:1054200089859A850E944900DC01CB019E838D838A
:105430008D819E819A83898389819A810197F1F771
:105440009A8389839E01215F3F4F81E061E0A9013A
:105450000E94F3188F852F960FB6F894DEBF0FBE0B
:10546000CDBFCF91DF910895DF93CF93CDB7DEB756
:1054700062970FB6F894DEBF0FBECDBF198A84E6DF
:10548000888B1F86A2C081E06F850E94971DCE0188
:1054900042960E94D9218A890E94581980E090E0A2
:1054A000A8E4B2E48B879C87AD87BE876B857C853B
:1054B0008D859E8520E030E04AE753E40E941F027C
:1054C000DC01CB018F839887A987BA876F817885A4
:1054D00089859A8520E030E040E85FE30E9455042A
:1054E00088232CF481E090E09E838D833FC06F8100
:1054F000788589859A8520E03FEF4FE757E40E9441
:10550000F50318164CF56B857C858D859E8520E00E
:1055100030E040E251E40E941F02DC01CB01BC01FB
:10552000CD010E944900DC01CB019E838D830FC019
:1055300089E190E09C838B838B819C810197F1F7BB
:105540009C838B838D819E8101979E838D838D812A
:105550009E81009769F714C06F81788589859A8547
:105560000E944900DC01CB019E838D838D819E8149
:105570009A83898389819A810197F1F79A83898334
:1055800081E06F850E94971D8AE20E9458198A89DE
:10559000882F90E09C01205330408889882F90E02C
:1055A000AC01249FC001259F900D349F900D1124C4
:1055B000982F8989890F898B88899AE0692F0E94A1
:1055C000F92D888B8F858F5F8F878F85833008F4C7
:1055D0005ACF898962960FB6F894DEBF0FBECDBF51
:1055E000CF91DF910895DF93CF93CDB7DEB7639767
:1055F0000FB6F894DEBF0FBECDBF198A188AA7C0B8
:105600000E94D61B80E060E00E94971D8CE690E02F
:105610000E946E1D0E94E61C0E94342A8A8B1F86FF
:1056200012C08F85882F90E0FC01E65DFD4F9081D0
:105630008A89981729F481E0898B89898B8B8DC0A1
:105640008F858F5F8F87909152028F85891748F3DE
:1056500088898F5F888B0E94D61B80E060E00E9463
:10566000971D8AE790E00E946E1D80E090E0AAEF0F
:10567000B3E48B879C87AD87BE876B857C858D85E2
:105680009E8520E030E04AE753E40E941F02DC01DF
:10569000CB018F839887A987BA876F8178858985A1
:1056A0009A8520E030E040E85FE30E9455048823BB
:1056B0002CF481E090E09E838D833FC06F817885DC
:1056C00089859A8520E03FEF4FE757E40E94F50374
:1056D00018164CF56B857C858D859E8520E030E025
:1056E00040E251E40E941F02DC01CB01BC01CD016C
:1056F0000E944900DC01CB019E838D830FC089E1AC
:1057000090E09C838B838B819C810197F1F79C8334
:105710008B838D819E8101979E838D838D819E8158
:10572000009769F714C06F81788589859A850E94F2
:105730004900DC01CB019E838D838D819E819A83FC
:10574000898389819A810197F1F79A83898388896E
:10575000833008F455CF89898B8B8B8963960FB67C
:10576000F894DEBF0FBECDBFCF91DF910895DF93D8
:10577000CF93CDB7DEB763970FB6F894DEBF0FBEF9
:10578000CDBF198A188AA7C00E94D61B80E060E0AE
:105790000E94971D83E890E00E946E1D0E94E61C07
:1057A0000E94342A8A8B1F8612C08F85882F90E032
:1057B000FC01E25CFD4F90818A89981729F481E011
:1057C000898B89898B8B8DC08F858F5F8F87909117
:1057D00052028F85891748F388898F5F888B0E94D2
:1057E000D61B80E060E00E94971D81E990E00E9456
:1057F0006E1D80E090E0AAEFB3E48B879C87AD87B5
:10580000BE876B857C858D859E8520E030E04AE7EC
:1058100053E40E941F02DC01CB018F839887A98784
:10582000BA876F81788589859A8520E030E040E8E5
:105830005FE30E94550488232CF481E090E09E836E
:105840008D833FC06F81788589859A8520E03FEF01
:105850004FE757E40E94F50318164CF56B857C85DD
:105860008D859E8520E030E040E251E40E941F02D9
:10587000DC01CB01BC01CD010E944900DC01CB0160
:105880009E838D830FC089E190E09C838B838B8105
:105890009C810197F1F79C838B838D819E81019779
:1058A0009E838D838D819E81009769F714C06F81DF
:1058B000788589859A850E944900DC01CB019E8309
:1058C0008D838D819E819A83898389819A810197B5
:1058D000F1F79A8389838889833008F455CF8989C1
:1058E0008B8B8B8963960FB6F894DEBF0FBECDBF4E
:1058F000CF91DF910895DF93CF930F92CDB7DEB7AD
:1059000019820E94F32A882361F00E94B72B882312
:1059100039F081E0898389810F90CF91DF910895DB
:10592000FFCFFFCFDF93CF930F92CDB7DEB70E94AB
:10593000D61B80E060E00E94971D80EA90E00E9404
:105940006E1D81E060E00E94971D88EA90E00E9451
:105950006E1D1982CE0101960E94D9218981805342
:105960000F90CF91DF910895DF93CF9300D00F92E6
:10597000CDB7DEB70E94D61B80E060E00E94971D85
:105980008FEA90E00E946E1D81E060E00E94971D0A
:1059900086EB90E00E946E1D1982CE0101960E9456
:1059A000D9218981805389838981813061F50E9461
:1059B000D61B80E060E00E94971D8EEB90E00E9475
:1059C0006E1D81E060E00E94971D86EC90E00E94D1
:1059D0006E1D1A82CE0102960E94D9218A818053BF
:1059E0008A830E94D61B8A81813029F481E062E09B
:1059F0000E94201934C08A81823089F581E063E0F9
:105A00000E9420192CC08981823049F50E94D61B42
:105A100080E060E00E94971D8EEB90E00E946E1D7A
:105A200081E060E00E94971D86EC90E00E946E1D70
:105A30001B82CE0103960E94D9218B8180538B83D8
:105A40008B81813029F481E062E00E94331907C024
:105A50008B81823021F481E063E00E9433190F9042
:105A60000F900F90CF91DF910895DF93CF93CDB733
:105A7000DEB762970FB6F894DEBF0FBECDBF898B3D
:105A80008989882309F096C0188A0E947B2C888B0C
:105A90000E945E1C0E94D61B80E060E00E94971D61
:105AA0008EEC90E00E946E1D80E090E0A6E1B3E4F1
:105AB0008B879C87AD87BE876B857C858D859E8512
:105AC00020E030E04AE753E40E941F02DC01CB01F2
:105AD0008F839887A987BA876F81788589859A850A
